{
  "contractName": "VotingBooth",
  "abi": [
    {
      "anonymous": false,
      "inputs": [
        {
          "indexed": true,
          "name": "voter",
          "type": "address"
        },
        {
          "indexed": true,
          "name": "MOTION_ID",
          "type": "uint16"
        },
        {
          "indexed": true,
          "name": "isYes",
          "type": "bool"
        },
        {
          "indexed": false,
          "name": "placedVotes",
          "type": "uint256"
        }
      ],
      "name": "NewVote",
      "type": "event"
    },
    {
      "constant": false,
      "inputs": [
        {
          "name": "balanceCardId",
          "type": "uint256"
        },
        {
          "name": "proof",
          "type": "bytes"
        },
        {
          "name": "placedVotes",
          "type": "int256"
        },
        {
          "name": "newVotes",
          "type": "int256"
        }
      ],
      "name": "castBallot",
      "outputs": [],
      "payable": false,
      "stateMutability": "nonpayable",
      "type": "function"
    },
    {
      "constant": false,
      "inputs": [
        {
          "name": "token",
          "type": "address"
        },
        {
          "name": "v",
          "type": "uint8"
        },
        {
          "name": "r",
          "type": "bytes32"
        },
        {
          "name": "s",
          "type": "bytes32"
        }
      ],
      "name": "consolidate",
      "outputs": [],
      "payable": false,
      "stateMutability": "nonpayable",
      "type": "function"
    }
  ],
  "bytecode": "0x608060405234801561001057600080fd5b5061096b806100206000396000f3fe608060405234801561001057600080fd5b50600436106100395760e060020a60003504635ca740ab811461003e5780636b0f34061461007b575b600080fd5b6100796004803603608081101561005457600080fd5b50600160a060020a038135169060ff602082013516906040810135906060013561012b565b005b6100796004803603608081101561009157600080fd5b81359190810190604081016020820135602060020a8111156100b257600080fd5b8201836020820111156100c457600080fd5b803590602001918460018302840111602060020a831117156100e557600080fd5b91908080601f01602080910402602001604051908101604052809392919081815260200183838082843760009201919091525092955050823593505050602001356102ff565b60008061013a3086868661076b565b909250905060018215151461018d576040805160e560020a62461bcd02815260206004820152600e6024820152609260020a6d1c9958dbdd995c8819985a5b195902604482015290519081900360640190fd5b600160a060020a038116737891111111111111111111111111111111111789146101fc576040805160e560020a62461bcd0281526020600482015260156024820152605b60020a740e6d2cedccae440c8decae640dcdee840dac2e8c6d02604482015290519081900360640190fd5b6040805160e060020a6370a08231028152306004820181905291518892600160a060020a0384169263a9059cbb9284916370a08231916024808301926020929190829003018186803b15801561025157600080fd5b505afa158015610265573d6000803e3d6000fd5b505050506040513d602081101561027b57600080fd5b50516040805160e060020a63ffffffff8616028152600160a060020a03909316600484015260248301919091525160448083019260209291908290030181600087803b1580156102ca57600080fd5b505af11580156102de573d6000803e3d6000fd5b505050506040513d60208110156102f457600080fd5b505050505050505050565b6040805160e060020a6337ebbc030281526004810186905290517334511111111111111111111111111111111113459160009183916337ebbc03916024808301926020929190829003018186803b15801561035957600080fd5b505afa15801561036d573d6000803e3d6000fd5b505050506040513d602081101561038357600080fd5b505190506103988465deadbeef0001876107a8565b81146103e3576040805160e560020a62461bcd02815260206004820152600f6024820152608a60020a6e1c1c9bdbd9881b9bdd081d985b1a5902604482015290519081900360640190fd5b60008085121561045d57848412610442576040805160e560020a62461bcd0281526020600482015260186024820152604060020a7763616e206e6f74206465637265617365206e6f20766f746502604482015290519081900360640190fd5b507356711111111111111111111111111111111115676104ca565b8484136104b3576040805160e560020a62461bcd0281526020600482015260196024820152603860020a7863616e206e6f742064656372656173652079657320766f746502604482015290519081900360640190fd5b507345611111111111111111111111111111111114565b6000670de0b6b3a76400008680028680020304905060007312311111111111111111111111111111111111239050600085600160a060020a0316636352211e8b6040518263ffffffff1660e060020a0281526004018082815260200191505060206040518083038186803b15801561054157600080fd5b505afa158015610555573d6000803e3d6000fd5b505050506040513d602081101561056b57600080fd5b50516040805160e060020a6323b872dd028152600160a060020a0380841660048301528781166024830152604482018790529151929350908416916323b872dd916064808201926020929091908290030181600087803b1580156105ce57600080fd5b505af11580156105e2573d6000803e3d6000fd5b505050506040513d60208110156105f857600080fd5b50732341111111111111111111111111111111111234905063a9059cbb856106218b8b03610921565b6040518363ffffffff1660e060020a0281526004018083600160a060020a0316600160a060020a0316815260200182815260200192505050602060405180830381600087803b15801561067357600080fd5b505af1158015610687573d6000803e3d6000fd5b505050506040513d602081101561069d57600080fd5b5050600160a060020a03861663a983d43f8b6106c08a65deadbeef00018e6107a8565b6040518363ffffffff1660e060020a0281526004018083815260200182815260200192505050600060405180830381600087803b15801561070057600080fd5b505af1158015610714573d6000803e3d6000fd5b505060408051868152905160008b13935060019250600160a060020a038516917fe88d7264516faa76a22f83e03b5b21c08e92f286599e40b22fe89f5cc89b2e77919081900360200190a450505050505050505050565b60008060008060405188815287602082015286604082015285606082015260208160808360006001610bb8f1905190999098509650505050505050565b805160009060209060011901061580156107c55750610122825111155b1515610815576040805160e560020a62461bcd0281526020600482015260146024820152606260020a731a5b9d985b1a59081c1c9bdbd988199bdc9b585d02604482015290519081900360640190fd5b6020820151600090859060029060f060020a900486845b60098110156109135760018316151561084857600095506108af565b6020840193508361ffff168851101515156108a8576040805160e560020a62461bcd0281526020600482015260156024820152605b60020a740e0e4dedecc40dcdee840d8dedcce40cadcdeeaced02604482015290519081900360640190fd5b8388015195505b841580156108bb575085155b156108c957600094506108f7565b6001821615156108e7578460005285602052604060002094506108f7565b8560005284602052604060002094505b600261ffff8416049250600261ffff831604915060010161082c565b509298975050505050505050565b600080821215610937578160001902905061093a565b50805b91905056fea165627a7a7230582088ff515c711320aea5d7fcbaf93ec2b859147be6500d5da4d0e76b1aa090903d0029",
  "source": "/**\n * Copyright (c) 2019-present, deora.earth\n *\n * This source code is licensed under the Mozilla Public License, version 2,\n * found in the LICENSE file in the root directory of this source tree.\n */\npragma solidity ^0.5.2;\nimport \"openzeppelin-solidity/contracts/token/ERC20/IERC20.sol\";\nimport \"./SparseMerkleTree.sol\";\nimport \"./IERC1948.sol\";\n\ncontract VotingBooth is SparseMerkleTree {\n  address constant VOICE_CREDITS = 0x1231111111111111111111111111111111111123;\n  address constant VOTES = 0x2341111111111111111111111111111111111234;\n  address constant BALANCE_CARDS = 0x3451111111111111111111111111111111111345;\n  address constant YES_BOX = 0x4561111111111111111111111111111111111456;\n  address constant NO_BOX = 0x5671111111111111111111111111111111111567;\n  uint48 constant MOTION_ID = 0xdeadbeef0001;\n  uint256 constant CREDIT_DECIMALS = 1000000000000000000;\n\n  event NewVote(\n    address indexed voter,\n    uint16 indexed MOTION_ID,\n    bool indexed isYes,\n    uint256 placedVotes\n  );\n  \n  function castBallot(\n    uint256 balanceCardId,\n    bytes memory proof,\n    int256 placedVotes,\n    int256 newVotes\n  ) public {\n\n    // read previous votes\n    IERC1948 ballotCards = IERC1948(BALANCE_CARDS);\n    bytes32 root = ballotCards.readData(balanceCardId);\n    require(root == _getRoot(bytes32(placedVotes), uint16(MOTION_ID), proof), \"proof not valid\");\n    address destinationBallot;\n    if (placedVotes < 0) {\n      require(newVotes < placedVotes, \"can not decrease no vote\");\n      destinationBallot = NO_BOX;\n    } else {\n      require(newVotes > placedVotes, \"can not decrease yes vote\");\n      destinationBallot = YES_BOX;\n    }\n    uint256 diffCredits = uint256((newVotes * newVotes) - (placedVotes * placedVotes)) / CREDIT_DECIMALS;\n\n    // transfer credits\n    IERC20 credits = IERC20(VOICE_CREDITS);\n    address voter = ballotCards.ownerOf(balanceCardId);\n    credits.transferFrom(voter, destinationBallot, diffCredits);\n    // transfer votes\n    IERC20(VOTES).transfer(destinationBallot, abs(newVotes - placedVotes));\n    \n    // update ballotCard\n    ballotCards.writeData(balanceCardId, _getRoot(bytes32(newVotes), uint16(MOTION_ID), proof));\n\n    // emit event\n    emit NewVote(voter, uint16(MOTION_ID), newVotes > 0,diffCredits);\n  }\n\n  // account used for consolidates.\n  address constant OPERATOR = 0x7891111111111111111111111111111111111789;\n\n  // used to combine multiple contract UTXOs into one.\n  function consolidate(address token, uint8 v, bytes32 r, bytes32 s) public {\n    bool success;\n    address signer;\n    (success, signer) = safer_ecrecover(bytes32(uint256(uint160(address(this)))), v, r, s);\n    require(success == true, \"recover failed\");\n    require(signer == OPERATOR, \"signer does not match\");\n    IERC20 erc20 = IERC20(token);\n    erc20.transfer(address(this), erc20.balanceOf(address(this)));\n  }\n}",
  "sourcePath": "E:/Work/leap-dao/voting-contracts/contracts/VotingBooth.sol",
  "compiler": {
    "name": "solc",
    "version": "0.5.2+commit.1df8f40c.Emscripten.clang"
  },
  "schemaVersion": "3.0.11",
  "updatedAt": "2019-08-30T16:22:44.476Z",
  "devdoc": {
    "methods": {}
  },
  "userdoc": {
    "methods": {}
  }
}