{
  "contractName": "Goellars",
  "abi": [
    {
      "constant": true,
      "inputs": [],
      "name": "name",
      "outputs": [
        {
          "name": "",
          "type": "bytes32"
        }
      ],
      "payable": false,
      "stateMutability": "view",
      "type": "function"
    },
    {
      "constant": true,
      "inputs": [],
      "name": "decimals",
      "outputs": [
        {
          "name": "",
          "type": "uint8"
        }
      ],
      "payable": false,
      "stateMutability": "view",
      "type": "function"
    },
    {
      "constant": true,
      "inputs": [],
      "name": "bridgeAddr",
      "outputs": [
        {
          "name": "",
          "type": "address"
        }
      ],
      "payable": false,
      "stateMutability": "view",
      "type": "function"
    },
    {
      "constant": true,
      "inputs": [],
      "name": "symbol",
      "outputs": [
        {
          "name": "",
          "type": "bytes32"
        }
      ],
      "payable": false,
      "stateMutability": "view",
      "type": "function"
    },
    {
      "constant": false,
      "inputs": [],
      "name": "renounceMinter",
      "outputs": [],
      "payable": false,
      "stateMutability": "nonpayable",
      "type": "function"
    },
    {
      "constant": true,
      "inputs": [
        {
          "name": "account",
          "type": "address"
        }
      ],
      "name": "isMinter",
      "outputs": [
        {
          "name": "",
          "type": "bool"
        }
      ],
      "payable": false,
      "stateMutability": "view",
      "type": "function"
    },
    {
      "constant": true,
      "inputs": [
        {
          "name": "",
          "type": "address"
        }
      ],
      "name": "daiBalance",
      "outputs": [
        {
          "name": "",
          "type": "uint256"
        }
      ],
      "payable": false,
      "stateMutability": "view",
      "type": "function"
    },
    {
      "constant": true,
      "inputs": [],
      "name": "dai",
      "outputs": [
        {
          "name": "",
          "type": "address"
        }
      ],
      "payable": false,
      "stateMutability": "view",
      "type": "function"
    },
    {
      "inputs": [
        {
          "name": "_daiAddr",
          "type": "address"
        },
        {
          "name": "_bridgeAddr",
          "type": "address"
        },
        {
          "name": "_name",
          "type": "bytes32"
        },
        {
          "name": "_symbol",
          "type": "bytes32"
        }
      ],
      "payable": false,
      "stateMutability": "nonpayable",
      "type": "constructor"
    },
    {
      "anonymous": false,
      "inputs": [
        {
          "indexed": true,
          "name": "account",
          "type": "address"
        }
      ],
      "name": "MinterAdded",
      "type": "event"
    },
    {
      "anonymous": false,
      "inputs": [
        {
          "indexed": true,
          "name": "account",
          "type": "address"
        }
      ],
      "name": "MinterRemoved",
      "type": "event"
    },
    {
      "anonymous": false,
      "inputs": [
        {
          "indexed": true,
          "name": "from",
          "type": "address"
        },
        {
          "indexed": true,
          "name": "to",
          "type": "address"
        },
        {
          "indexed": false,
          "name": "value",
          "type": "uint256"
        }
      ],
      "name": "Transfer",
      "type": "event"
    },
    {
      "anonymous": false,
      "inputs": [
        {
          "indexed": true,
          "name": "owner",
          "type": "address"
        },
        {
          "indexed": true,
          "name": "spender",
          "type": "address"
        },
        {
          "indexed": false,
          "name": "value",
          "type": "uint256"
        }
      ],
      "name": "Approval",
      "type": "event"
    },
    {
      "constant": false,
      "inputs": [
        {
          "name": "from",
          "type": "address"
        },
        {
          "name": "to",
          "type": "address"
        },
        {
          "name": "value",
          "type": "uint256"
        }
      ],
      "name": "transferFrom",
      "outputs": [
        {
          "name": "",
          "type": "bool"
        }
      ],
      "payable": false,
      "stateMutability": "nonpayable",
      "type": "function"
    },
    {
      "constant": false,
      "inputs": [],
      "name": "burnSender",
      "outputs": [],
      "payable": false,
      "stateMutability": "nonpayable",
      "type": "function"
    },
    {
      "constant": false,
      "inputs": [
        {
          "name": "_newMinter",
          "type": "address"
        }
      ],
      "name": "addMinter",
      "outputs": [],
      "payable": false,
      "stateMutability": "nonpayable",
      "type": "function"
    },
    {
      "constant": false,
      "inputs": [
        {
          "name": "to",
          "type": "address"
        },
        {
          "name": "value",
          "type": "uint256"
        }
      ],
      "name": "mint",
      "outputs": [
        {
          "name": "",
          "type": "bool"
        }
      ],
      "payable": false,
      "stateMutability": "nonpayable",
      "type": "function"
    },
    {
      "constant": true,
      "inputs": [],
      "name": "totalSupply",
      "outputs": [
        {
          "name": "",
          "type": "uint256"
        }
      ],
      "payable": false,
      "stateMutability": "view",
      "type": "function"
    },
    {
      "constant": true,
      "inputs": [
        {
          "name": "owner",
          "type": "address"
        }
      ],
      "name": "balanceOf",
      "outputs": [
        {
          "name": "",
          "type": "uint256"
        }
      ],
      "payable": false,
      "stateMutability": "view",
      "type": "function"
    },
    {
      "constant": true,
      "inputs": [
        {
          "name": "owner",
          "type": "address"
        },
        {
          "name": "spender",
          "type": "address"
        }
      ],
      "name": "allowance",
      "outputs": [
        {
          "name": "",
          "type": "uint256"
        }
      ],
      "payable": false,
      "stateMutability": "view",
      "type": "function"
    },
    {
      "constant": false,
      "inputs": [
        {
          "name": "to",
          "type": "address"
        },
        {
          "name": "value",
          "type": "uint256"
        }
      ],
      "name": "transfer",
      "outputs": [
        {
          "name": "",
          "type": "bool"
        }
      ],
      "payable": false,
      "stateMutability": "nonpayable",
      "type": "function"
    },
    {
      "constant": false,
      "inputs": [
        {
          "name": "spender",
          "type": "address"
        },
        {
          "name": "value",
          "type": "uint256"
        }
      ],
      "name": "approve",
      "outputs": [
        {
          "name": "",
          "type": "bool"
        }
      ],
      "payable": false,
      "stateMutability": "nonpayable",
      "type": "function"
    },
    {
      "constant": false,
      "inputs": [
        {
          "name": "spender",
          "type": "address"
        },
        {
          "name": "addedValue",
          "type": "uint256"
        }
      ],
      "name": "increaseAllowance",
      "outputs": [
        {
          "name": "",
          "type": "bool"
        }
      ],
      "payable": false,
      "stateMutability": "nonpayable",
      "type": "function"
    },
    {
      "constant": false,
      "inputs": [
        {
          "name": "spender",
          "type": "address"
        },
        {
          "name": "subtractedValue",
          "type": "uint256"
        }
      ],
      "name": "decreaseAllowance",
      "outputs": [
        {
          "name": "",
          "type": "bool"
        }
      ],
      "payable": false,
      "stateMutability": "nonpayable",
      "type": "function"
    }
  ],
  "bytecode": "0x608060405234801561001057600080fd5b506040516080806111d08339810180604052608081101561003057600080fd5b5080516020820151604083015160609093015191929091610059336401000000006100af810204565b60048054600160a060020a03958616600160a060020a03199091161790556003805460ff19949095166101000261010060a860020a0319909516949094179290921660121790925560019190915560025561018c565b6100c7600082640100000000610e546100fe82021704565b604051600160a060020a038216907f6ae172837ea30b801fbfcdd4108aa1d5bf8ff775444fd70256b44e6bf3dfc3f690600090a250565b600160a060020a038116151561011357600080fd5b6101268282640100000000610155810204565b1561013057600080fd5b600160a060020a0316600090815260209190915260409020805460ff19166001179055565b6000600160a060020a038216151561016c57600080fd5b50600160a060020a03166000908152602091909152604090205460ff1690565b6110358061019b6000396000f3fe608060405234801561001057600080fd5b50600436106100f45760e060020a600035046306fdde0381146100f9578063095ea7b31461011357806318160ddd1461015357806323b872dd1461015b578063313ce5671461019157806339509351146101af57806340c10f19146101db57806370a082311461020757806391874ef71461022d57806395d89b4114610251578063983b2d56146102595780639865027514610281578063a457c2d714610289578063a9059cbb146102b5578063aa271e1a146102e1578063b8c27ba314610307578063d7f7098f1461030f578063dd62ed3e14610335578063f4b9fa7514610363575b600080fd5b61010161036b565b60408051918252519081900360200190f35b61013f6004803603604081101561012957600080fd5b50600160a060020a038135169060200135610371565b604080519115158252519081900360200190f35b61010161041f565b61013f6004803603606081101561017157600080fd5b50600160a060020a03813581169160208101359091169060400135610425565b61019961057d565b6040805160ff9092168252519081900360200190f35b61013f600480360360408110156101c557600080fd5b50600160a060020a038135169060200135610586565b61013f600480360360408110156101f157600080fd5b50600160a060020a038135169060200135610666565b6101016004803603602081101561021d57600080fd5b5035600160a060020a031661068f565b6102356106aa565b60408051600160a060020a039092168252519081900360200190f35b6101016106be565b61027f6004803603602081101561026f57600080fd5b5035600160a060020a03166106c4565b005b61027f6106e4565b61013f6004803603604081101561029f57600080fd5b50600160a060020a0381351690602001356106ef565b61013f600480360360408110156102cb57600080fd5b50600160a060020a03813516906020013561077c565b61013f600480360360208110156102f757600080fd5b5035600160a060020a0316610789565b61027f6107a1565b6101016004803603602081101561032557600080fd5b5035600160a060020a03166107aa565b6101016004803603604081101561034b57600080fd5b50600160a060020a03813581169160200135166107bc565b6102356107e7565b60015481565b6000600160a060020a03831615156103ca576040805160e560020a62461bcd0281526020600482015260116024820152607a60020a701cdc195b99195c881b9bdd081d985b1a5902604482015290519081900360640190fd5b336000818152600760209081526040808320600160a060020a0388168085529083529281902086905580518681529051929392600080516020610fea833981519152929181900390910190a350600192915050565b60085490565b600160a060020a038316600090815260066020526040812054819083111561055057600160a060020a03851660009081526006602052604090205461047190849063ffffffff6107f616565b6003549091506101009004600160a060020a031633146104db576040805160e560020a62461bcd02815260206004820152601b60248201527f70756c6c416e644d696e74206f6e6c7920666f72206272696467650000000000604482015290519081900360640190fd5b600354600160a060020a038581166101009092041614610545576040805160e560020a62461bcd02815260206004820152601a60248201527f70756c6c416e644d696e74206f6e6c7920746f20627269646765000000000000604482015290519081900360640190fd5b61055085338361080b565b8281101561057257610572858561056d868563ffffffff6107f616565b61093a565b506001949350505050565b60035460ff1681565b6000600160a060020a03831615156105df576040805160e560020a62461bcd0281526020600482015260116024820152607a60020a701cdc195b99195c881b9bdd081d985b1a5902604482015290519081900360640190fd5b336000908152600760209081526040808320600160a060020a0387168452909152902054610613908363ffffffff6109a416565b336000818152600760209081526040808320600160a060020a038916808552908352928190208590558051948552519193600080516020610fea833981519152929081900390910190a350600192915050565b600061067133610789565b151561067c57600080fd5b61068683836109bd565b50600192915050565b600160a060020a031660009081526006602052604090205490565b6003546101009004600160a060020a031681565b60025481565b6106cd33610789565b15156106d857600080fd5b6106e181610a99565b50565b6106ed33610ae1565b565b6000600160a060020a0383161515610748576040805160e560020a62461bcd0281526020600482015260116024820152607a60020a701cdc195b99195c881b9bdd081d985b1a5902604482015290519081900360640190fd5b336000908152600760209081526040808320600160a060020a0387168452909152902054610613908363ffffffff6107f616565b6000610686338484610b29565b600061079b818363ffffffff610c2316565b92915050565b6106ed33610c5a565b60056020526000908152604090205481565b600160a060020a03918216600090815260076020908152604080832093909416825291909152205490565b600454600160a060020a031681565b60008282111561080557600080fd5b50900390565b600480546040805160e060020a6323b872dd028152600160a060020a038781169482019490945230602482015260448101859052905192909116916323b872dd916064808201926020929091908290030181600087803b15801561086e57600080fd5b505af1158015610882573d6000803e3d6000fd5b505050506040513d602081101561089857600080fd5b505115156108e9576040805160e560020a62461bcd0281526020600482015260136024820152606a60020a721d1c985b9cd9995c919c9bdb4819985a5b195902604482015290519081900360640190fd5b600160a060020a038316600090815260056020526040902054610912908263ffffffff6109a416565b600160a060020a03841660009081526005602052604090205561093582826109bd565b505050565b610945838383610b29565b600354600160a060020a03838116610100909204161461093557600160a060020a038316600090815260076020908152604080832033845290915290205461099e908490610999908463ffffffff6107f616565b610371565b50505050565b6000828201838110156109b657600080fd5b9392505050565b600160a060020a0382161515610a14576040805160e560020a62461bcd0281526020600482015260116024820152607a60020a701858d8dbdd5b9d081b9bdd081d985b1a5902604482015290519081900360640190fd5b600854610a27908263ffffffff6109a416565b600855600160a060020a038216600090815260066020526040902054610a53908263ffffffff6109a416565b600160a060020a0383166000818152600660209081526040808320949094558351858152935192939192600080516020610fca8339815191529281900390910190a35050565b610aaa60008263ffffffff610e5416565b604051600160a060020a038216907f6ae172837ea30b801fbfcdd4108aa1d5bf8ff775444fd70256b44e6bf3dfc3f690600090a250565b610af260008263ffffffff610ea216565b604051600160a060020a038216907fe94479a9f7e1952cc78f2d6baab678adc1b772d936c6583def489e524cb6669290600090a250565b600160a060020a0382161515610b7b576040805160e560020a62461bcd02815260206004820152600c602482015260a260020a6b1d1bc81b9bdd081d985b1a5902604482015290519081900360640190fd5b600160a060020a038316600090815260066020526040902054610ba4908263ffffffff6107f616565b600160a060020a038085166000908152600660205260408082209390935590841681522054610bd9908263ffffffff6109a416565b600160a060020a038084166000818152600660209081526040918290209490945580518581529051919392871692600080516020610fca83398151915292918290030190a3505050565b6000600160a060020a0382161515610c3a57600080fd5b50600160a060020a03166000908152602091909152604090205460ff1690565b600160a060020a038116600090815260066020526040902054610c7c82610789565b1515610d6e57600160a060020a03821660009081526005602052604081205411610cf0576040805160e560020a62461bcd02815260206004820152601e60248201527f6e6f2070726576696f75732064616920636f6c6c61746572616c697a65640000604482015290519081900360640190fd5b600160a060020a038216600090815260056020526040902054811115610d2b5750600160a060020a0381166000908152600560205260409020545b600160a060020a038216600090815260056020526040902054610d54908263ffffffff6107f616565b600160a060020a0383166000908152600560205260409020555b610d788282610eee565b600480546040805160e060020a63a9059cbb028152600160a060020a0386811694820194909452602481018590529051929091169163a9059cbb916044808201926020929091908290030181600087803b158015610dd557600080fd5b505af1158015610de9573d6000803e3d6000fd5b505050506040513d6020811015610dff57600080fd5b50511515610e50576040805160e560020a62461bcd0281526020600482015260136024820152606a60020a7219185a481d1c985b9cd9995c8819985a5b195902604482015290519081900360640190fd5b5050565b600160a060020a0381161515610e6957600080fd5b610e738282610c23565b15610e7d57600080fd5b600160a060020a0316600090815260209190915260409020805460ff19166001179055565b600160a060020a0381161515610eb757600080fd5b610ec18282610c23565b1515610ecc57600080fd5b600160a060020a0316600090815260209190915260409020805460ff19169055565b600160a060020a0382161515610f45576040805160e560020a62461bcd0281526020600482015260116024820152607a60020a701858d8dbdd5b9d081b9bdd081d985b1a5902604482015290519081900360640190fd5b600854610f58908263ffffffff6107f616565b600855600160a060020a038216600090815260066020526040902054610f84908263ffffffff6107f616565b600160a060020a038316600081815260066020908152604080832094909455835185815293519193600080516020610fca833981519152929081900390910190a3505056feddf252ad1be2c89b69c2b068fc378daa952ba7f163c4a11628f55a4df523b3ef8c5be1e5ebec7d5bd14f71427d1e84f3dd0314c0f7b2291e5b200ac8c7c3b925a165627a7a7230582063cb74fc7c1f8b1d9e85993881c7343e1ee831a95b604d96e30410cee12edcfc0029",
  "source": "pragma solidity 0.5.2;\n\nimport \"../node_modules/openzeppelin-solidity/contracts/token/ERC20/IERC20.sol\";\nimport \"../node_modules/openzeppelin-solidity/contracts/math/SafeMath.sol\";\nimport \"../node_modules/openzeppelin-solidity/contracts/access/roles/MinterRole.sol\";\n\n\ncontract Goellars is IERC20, MinterRole {\n  using SafeMath for uint256;\n  \n  bytes32 public name;\n  bytes32 public symbol;\n  uint8 public decimals;\n\n  address public bridgeAddr;\n  IERC20 public dai;\n  mapping(address => uint256) public daiBalance;\n\n  constructor(address _daiAddr, address _bridgeAddr, bytes32 _name, bytes32 _symbol) public {\n    dai = IERC20(_daiAddr);\n    bridgeAddr = _bridgeAddr;\n    decimals = 18;\n    name = _name;\n    symbol = _symbol;\n  }\n\n  // 1. DAI is pulled into the contract, and record created\n  // 2. goellars are minted in amount of DAI deposited\n  // 3. goellars transfered to the Bridge\n  function _pullAndMint(address from, address to, uint256 value) internal {\n    require(dai.transferFrom(from, address(this), value), \"transferFrom failed\");\n    daiBalance[from] = daiBalance[from].add(value);\n    _mint(to, value);\n  }\n\n  function _transferFrom(address from, address to, uint256 value) internal {\n    _transfer(from, to, value);\n\n    // only check allowance if other caller than bridge\n    if (to != bridgeAddr) {\n      approve(from, _allowed[from][msg.sender].sub(value));\n    }\n  }\n\n  // +------+         +----------+     +--------+\n  // |  DAI |         | goellars |     | Bridge |\n  // +---+--+         +----+-----+     +----+---+\n  //     |                 |                |\n  //     |                 |                |\n  //     |                 | transferFrom   |\n  //     |  transferFrom   | <------------+ |\n  //     | <------------+  |                |\n  //     |                 | mint           |\n  //     | +------------>  | +--+           |\n  //     |                 |    |           |\n  //     |                 | <--+           |\n  //     |                 |                |\n  //     |                 | transfer       |\n  //     |                 | +----------->  |\n  //     |                 |                |\n  function transferFrom(address from, address to, uint256 value) public returns (bool) {\n    uint256 amountToMint = 0;\n    if (_balances[from] < value) {\n      amountToMint = value.sub(_balances[from]);\n      require(msg.sender == bridgeAddr, \"pullAndMint only for bridge\");\n      require(to == bridgeAddr, \"pullAndMint only to bridge\");\n      _pullAndMint(from, msg.sender, amountToMint);\n    }\n    if (amountToMint < value) {\n      _transferFrom(from, to, value.sub(amountToMint));\n    }\n    return true;\n  }\n\n  function _burn(address owner) internal {\n    uint256 amount = _balances[owner];\n    if (!isMinter(owner)) {\n      require(daiBalance[owner] > 0, \"no previous dai collateralized\");\n      if (daiBalance[owner] < amount) {\n        amount = daiBalance[owner];\n      }\n      daiBalance[owner] = daiBalance[owner].sub(amount);\n    }\n    _burn(owner, amount);\n    require(dai.transfer(owner, amount), \"dai transfer failed\");\n  }\n\n  function burnSender() public {\n    _burn(msg.sender);\n  }\n\n  function addMinter(address _newMinter) public onlyMinter {\n    _addMinter(_newMinter);\n  }\n\n\n  // default open zepplin code from here on\n\n  /**\n   * @dev Function to mint tokens\n   * @param to The address that will receive the minted tokens.\n   * @param value The amount of tokens to mint.\n   * @return A boolean that indicates if the operation was successful.\n   */\n  function mint(address to, uint256 value) public onlyMinter returns (bool) {\n    _mint(to, value);\n    return true;\n  }\n\n  mapping (address => uint256) private _balances;\n\n  mapping (address => mapping (address => uint256)) private _allowed;\n\n  uint256 private _totalSupply;\n\n  /**\n  * @dev Total number of tokens in existence\n  */\n  function totalSupply() public view returns (uint256) {\n    return _totalSupply;\n  }\n\n  /**\n  * @dev Gets the balance of the specified address.\n  * @param owner The address to query the balance of.\n  * @return An uint256 representing the amount owned by the passed address.\n  */\n  function balanceOf(address owner) public view returns (uint256) {\n    return _balances[owner];\n  }\n\n  /**\n   * @dev Function to check the amount of tokens that an owner allowed to a spender.\n   * @param owner address The address which owns the funds.\n   * @param spender address The address which will spend the funds.\n   * @return A uint256 specifying the amount of tokens still available for the spender.\n   */\n  function allowance(address owner, address spender) public view returns (uint256) {\n    return _allowed[owner][spender];\n  }\n\n  /**\n  * @dev Transfer token for a specified address\n  * @param to The address to transfer to.\n  * @param value The amount to be transferred.\n  */\n  function transfer(address to, uint256 value) public returns (bool) {\n    _transfer(msg.sender, to, value);\n    return true;\n  }\n\n  /**\n   * @dev Approve the passed address to spend the specified amount of tokens on behalf of msg.sender.\n   * Beware that changing an allowance with this method brings the risk that someone may use both the old\n   * and the new allowance by unfortunate transaction ordering. One possible solution to mitigate this\n   * race condition is to first reduce the spender's allowance to 0 and set the desired value afterwards:\n   * https://github.com/ethereum/EIPs/issues/20#issuecomment-263524729\n   * @param spender The address which will spend the funds.\n   * @param value The amount of tokens to be spent.\n   */\n  function approve(address spender, uint256 value) public returns (bool) {\n    require(spender != address(0), \"spender not valid\");\n\n    _allowed[msg.sender][spender] = value;\n    emit Approval(msg.sender, spender, value);\n    return true;\n  }\n\n  /**\n   * @dev Increase the amount of tokens that an owner allowed to a spender.\n   * approve should be called when allowed_[_spender] == 0. To increment\n   * allowed value is better to use this function to avoid 2 calls (and wait until\n   * the first transaction is mined)\n   * From MonolithDAO Token.sol\n   * Emits an Approval event.\n   * @param spender The address which will spend the funds.\n   * @param addedValue The amount of tokens to increase the allowance by.\n   */\n  function increaseAllowance(address spender, uint256 addedValue) public returns (bool) {\n    require(spender != address(0), \"spender not valid\");\n\n    _allowed[msg.sender][spender] = _allowed[msg.sender][spender].add(addedValue);\n    emit Approval(msg.sender, spender, _allowed[msg.sender][spender]);\n    return true;\n  }\n\n  /**\n   * @dev Decrease the amount of tokens that an owner allowed to a spender.\n   * approve should be called when allowed_[_spender] == 0. To decrement\n   * allowed value is better to use this function to avoid 2 calls (and wait until\n   * the first transaction is mined)\n   * From MonolithDAO Token.sol\n   * Emits an Approval event.\n   * @param spender The address which will spend the funds.\n   * @param subtractedValue The amount of tokens to decrease the allowance by.\n   */\n  function decreaseAllowance(address spender, uint256 subtractedValue) public returns (bool) {\n    require(spender != address(0), \"spender not valid\");\n\n    _allowed[msg.sender][spender] = _allowed[msg.sender][spender].sub(subtractedValue);\n    emit Approval(msg.sender, spender, _allowed[msg.sender][spender]);\n    return true;\n  }\n\n  /**\n  * @dev Transfer token for a specified addresses\n  * @param from The address to transfer from.\n  * @param to The address to transfer to.\n  * @param value The amount to be transferred.\n  */\n  function _transfer(address from, address to, uint256 value) internal {\n    require(to != address(0), \"to not valid\");\n\n    _balances[from] = _balances[from].sub(value);\n    _balances[to] = _balances[to].add(value);\n    emit Transfer(from, to, value);\n  }\n\n  /**\n   * @dev Internal function that mints an amount of the token and assigns it to\n   * an account. This encapsulates the modification of balances such that the\n   * proper events are emitted.\n   * @param account The account that will receive the created tokens.\n   * @param value The amount that will be created.\n   */\n  function _mint(address account, uint256 value) internal {\n    require(account != address(0), \"account not valid\");\n\n    _totalSupply = _totalSupply.add(value);\n    _balances[account] = _balances[account].add(value);\n    emit Transfer(address(0), account, value);\n  }\n\n  /**\n   * @dev Internal function that burns an amount of the token of a given\n   * account.\n   * @param account The account whose tokens will be burnt.\n   * @param value The amount that will be burnt.\n   */\n  function _burn(address account, uint256 value) internal {\n    require(account != address(0), \"account not valid\");\n\n    _totalSupply = _totalSupply.sub(value);\n    _balances[account] = _balances[account].sub(value);\n    emit Transfer(account, address(0), value);\n  }\n\n  /**\n   * @dev Internal function that burns an amount of the token of a given\n   * account, deducting from the sender's allowance for said account. Uses the\n   * internal burn function.\n   * Emits an Approval event (reflecting the reduced allowance).\n   * @param account The account whose tokens will be burnt.\n   * @param value The amount that will be burnt.\n   */\n  function _burnFrom(address account, uint256 value) internal {\n    _allowed[account][msg.sender] = _allowed[account][msg.sender].sub(value);\n    _burn(account, value);\n    emit Approval(account, msg.sender, _allowed[account][msg.sender]);\n  }\n\n}",
  "sourcePath": "/Users/linkeex/Projects/planet-a-contracts/contracts/Goellars.sol",
  "compiler": {
    "name": "solc",
    "version": "0.5.2+commit.1df8f40c.Emscripten.clang"
  },
  "schemaVersion": "3.0.9",
  "updatedAt": "2019-08-19T16:45:07.045Z",
  "devdoc": {
    "methods": {
      "allowance(address,address)": {
        "details": "Function to check the amount of tokens that an owner allowed to a spender.",
        "params": {
          "owner": "address The address which owns the funds.",
          "spender": "address The address which will spend the funds."
        },
        "return": "A uint256 specifying the amount of tokens still available for the spender."
      },
      "approve(address,uint256)": {
        "details": "Approve the passed address to spend the specified amount of tokens on behalf of msg.sender. Beware that changing an allowance with this method brings the risk that someone may use both the old and the new allowance by unfortunate transaction ordering. One possible solution to mitigate this race condition is to first reduce the spender's allowance to 0 and set the desired value afterwards: https://github.com/ethereum/EIPs/issues/20#issuecomment-263524729",
        "params": {
          "spender": "The address which will spend the funds.",
          "value": "The amount of tokens to be spent."
        }
      },
      "balanceOf(address)": {
        "details": "Gets the balance of the specified address.",
        "params": {
          "owner": "The address to query the balance of."
        },
        "return": "An uint256 representing the amount owned by the passed address."
      },
      "decreaseAllowance(address,uint256)": {
        "details": "Decrease the amount of tokens that an owner allowed to a spender. approve should be called when allowed_[_spender] == 0. To decrement allowed value is better to use this function to avoid 2 calls (and wait until the first transaction is mined) From MonolithDAO Token.sol Emits an Approval event.",
        "params": {
          "spender": "The address which will spend the funds.",
          "subtractedValue": "The amount of tokens to decrease the allowance by."
        }
      },
      "increaseAllowance(address,uint256)": {
        "details": "Increase the amount of tokens that an owner allowed to a spender. approve should be called when allowed_[_spender] == 0. To increment allowed value is better to use this function to avoid 2 calls (and wait until the first transaction is mined) From MonolithDAO Token.sol Emits an Approval event.",
        "params": {
          "addedValue": "The amount of tokens to increase the allowance by.",
          "spender": "The address which will spend the funds."
        }
      },
      "mint(address,uint256)": {
        "details": "Function to mint tokens",
        "params": {
          "to": "The address that will receive the minted tokens.",
          "value": "The amount of tokens to mint."
        },
        "return": "A boolean that indicates if the operation was successful."
      },
      "totalSupply()": {
        "details": "Total number of tokens in existence"
      },
      "transfer(address,uint256)": {
        "details": "Transfer token for a specified address",
        "params": {
          "to": "The address to transfer to.",
          "value": "The amount to be transferred."
        }
      }
    }
  },
  "userdoc": {
    "methods": {}
  }
}